{
	"data": {
		"bytecode": {
			"linkReferences": {},
			"object": "608060405234801561001057600080fd5b506103ec806100206000396000f3fe608060405234801561001057600080fd5b50600436106100365760003560e01c80630a0759571461003b578063f8a8fd6d14610045575b600080fd5b61004361004f565b005b61004d610102565b005b60006040518060400160405280600b81526020017f41686d6164204b6172696d000000000000000000000000000000000000000000815250905060006040518060400160405280601081526020017f436f6d707574657220536369656e63650000000000000000000000000000000081525090507fedcff0d422bc4fd1cd86832794652f1e9c82230a3b34abb2363ab2e747e35b9b8230836040516100f693929190610299565b60405180910390a15050565b3373ffffffffffffffffffffffffffffffffffffffff167f0738f4da267a110d810e6e89fc59e46be6de0c37b1d5cd559b267dc3688e74e06040516101469061032a565b60405180910390a23373ffffffffffffffffffffffffffffffffffffffff167f0738f4da267a110d810e6e89fc59e46be6de0c37b1d5cd559b267dc3688e74e060405161019290610396565b60405180910390a27ffe1a3ad11e425db4b8e6af35d11c50118826a496df73006fc724cb27f2b9994660405160405180910390a1565b600081519050919050565b600082825260208201905092915050565b60005b838110156102025780820151818401526020810190506101e7565b60008484015250505050565b6000601f19601f8301169050919050565b600061022a826101c8565b61023481856101d3565b93506102448185602086016101e4565b61024d8161020e565b840191505092915050565b600073ffffffffffffffffffffffffffffffffffffffff82169050919050565b600061028382610258565b9050919050565b61029381610278565b82525050565b600060608201905081810360008301526102b3818661021f565b90506102c2602083018561028a565b81810360408301526102d4818461021f565b9050949350505050565b7f48656c6c6f20576562332e300000000000000000000000000000000000000000600082015250565b6000610314600c836101d3565b915061031f826102de565b602082019050919050565b6000602082019050818103600083015261034381610307565b9050919050565b7f4974277320616c6c2061626f757420446563656e7472616c697a6174696f6e00600082015250565b6000610380601f836101d3565b915061038b8261034a565b602082019050919050565b600060208201905081810360008301526103af81610373565b905091905056fea2646970667358221220f72a52a7fe35aca46eb99daa131b318ce6a76f6b800c978f2c5855bf99d2708f64736f6c63430008120033",
			"opcodes": "PUSH1 0x80 PUSH1 0x40 MSTORE CALLVALUE DUP1 ISZERO PUSH2 0x10 JUMPI PUSH1 0x0 DUP1 REVERT JUMPDEST POP PUSH2 0x3EC DUP1 PUSH2 0x20 PUSH1 0x0 CODECOPY PUSH1 0x0 RETURN INVALID PUSH1 0x80 PUSH1 0x40 MSTORE CALLVALUE DUP1 ISZERO PUSH2 0x10 JUMPI PUSH1 0x0 DUP1 REVERT JUMPDEST POP PUSH1 0x4 CALLDATASIZE LT PUSH2 0x36 JUMPI PUSH1 0x0 CALLDATALOAD PUSH1 0xE0 SHR DUP1 PUSH4 0xA075957 EQ PUSH2 0x3B JUMPI DUP1 PUSH4 0xF8A8FD6D EQ PUSH2 0x45 JUMPI JUMPDEST PUSH1 0x0 DUP1 REVERT JUMPDEST PUSH2 0x43 PUSH2 0x4F JUMP JUMPDEST STOP JUMPDEST PUSH2 0x4D PUSH2 0x102 JUMP JUMPDEST STOP JUMPDEST PUSH1 0x0 PUSH1 0x40 MLOAD DUP1 PUSH1 0x40 ADD PUSH1 0x40 MSTORE DUP1 PUSH1 0xB DUP2 MSTORE PUSH1 0x20 ADD PUSH32 0x41686D6164204B6172696D000000000000000000000000000000000000000000 DUP2 MSTORE POP SWAP1 POP PUSH1 0x0 PUSH1 0x40 MLOAD DUP1 PUSH1 0x40 ADD PUSH1 0x40 MSTORE DUP1 PUSH1 0x10 DUP2 MSTORE PUSH1 0x20 ADD PUSH32 0x436F6D707574657220536369656E636500000000000000000000000000000000 DUP2 MSTORE POP SWAP1 POP PUSH32 0xEDCFF0D422BC4FD1CD86832794652F1E9C82230A3B34ABB2363AB2E747E35B9B DUP3 ADDRESS DUP4 PUSH1 0x40 MLOAD PUSH2 0xF6 SWAP4 SWAP3 SWAP2 SWAP1 PUSH2 0x299 JUMP JUMPDEST PUSH1 0x40 MLOAD DUP1 SWAP2 SUB SWAP1 LOG1 POP POP JUMP JUMPDEST CALLER PUSH20 0xFFFFFFFFFFFFFFFFFFFFFFFFFFFFFFFFFFFFFFFF AND PUSH32 0x738F4DA267A110D810E6E89FC59E46BE6DE0C37B1D5CD559B267DC3688E74E0 PUSH1 0x40 MLOAD PUSH2 0x146 SWAP1 PUSH2 0x32A JUMP JUMPDEST PUSH1 0x40 MLOAD DUP1 SWAP2 SUB SWAP1 LOG2 CALLER PUSH20 0xFFFFFFFFFFFFFFFFFFFFFFFFFFFFFFFFFFFFFFFF AND PUSH32 0x738F4DA267A110D810E6E89FC59E46BE6DE0C37B1D5CD559B267DC3688E74E0 PUSH1 0x40 MLOAD PUSH2 0x192 SWAP1 PUSH2 0x396 JUMP JUMPDEST PUSH1 0x40 MLOAD DUP1 SWAP2 SUB SWAP1 LOG2 PUSH32 0xFE1A3AD11E425DB4B8E6AF35D11C50118826A496DF73006FC724CB27F2B99946 PUSH1 0x40 MLOAD PUSH1 0x40 MLOAD DUP1 SWAP2 SUB SWAP1 LOG1 JUMP JUMPDEST PUSH1 0x0 DUP2 MLOAD SWAP1 POP SWAP2 SWAP1 POP JUMP JUMPDEST PUSH1 0x0 DUP3 DUP3 MSTORE PUSH1 0x20 DUP3 ADD SWAP1 POP SWAP3 SWAP2 POP POP JUMP JUMPDEST PUSH1 0x0 JUMPDEST DUP4 DUP2 LT ISZERO PUSH2 0x202 JUMPI DUP1 DUP3 ADD MLOAD DUP2 DUP5 ADD MSTORE PUSH1 0x20 DUP2 ADD SWAP1 POP PUSH2 0x1E7 JUMP JUMPDEST PUSH1 0x0 DUP5 DUP5 ADD MSTORE POP POP POP POP JUMP JUMPDEST PUSH1 0x0 PUSH1 0x1F NOT PUSH1 0x1F DUP4 ADD AND SWAP1 POP SWAP2 SWAP1 POP JUMP JUMPDEST PUSH1 0x0 PUSH2 0x22A DUP3 PUSH2 0x1C8 JUMP JUMPDEST PUSH2 0x234 DUP2 DUP6 PUSH2 0x1D3 JUMP JUMPDEST SWAP4 POP PUSH2 0x244 DUP2 DUP6 PUSH1 0x20 DUP7 ADD PUSH2 0x1E4 JUMP JUMPDEST PUSH2 0x24D DUP2 PUSH2 0x20E JUMP JUMPDEST DUP5 ADD SWAP2 POP POP SWAP3 SWAP2 POP POP JUMP JUMPDEST PUSH1 0x0 PUSH20 0xFFFFFFFFFFFFFFFFFFFFFFFFFFFFFFFFFFFFFFFF DUP3 AND SWAP1 POP SWAP2 SWAP1 POP JUMP JUMPDEST PUSH1 0x0 PUSH2 0x283 DUP3 PUSH2 0x258 JUMP JUMPDEST SWAP1 POP SWAP2 SWAP1 POP JUMP JUMPDEST PUSH2 0x293 DUP2 PUSH2 0x278 JUMP JUMPDEST DUP3 MSTORE POP POP JUMP JUMPDEST PUSH1 0x0 PUSH1 0x60 DUP3 ADD SWAP1 POP DUP2 DUP2 SUB PUSH1 0x0 DUP4 ADD MSTORE PUSH2 0x2B3 DUP2 DUP7 PUSH2 0x21F JUMP JUMPDEST SWAP1 POP PUSH2 0x2C2 PUSH1 0x20 DUP4 ADD DUP6 PUSH2 0x28A JUMP JUMPDEST DUP2 DUP2 SUB PUSH1 0x40 DUP4 ADD MSTORE PUSH2 0x2D4 DUP2 DUP5 PUSH2 0x21F JUMP JUMPDEST SWAP1 POP SWAP5 SWAP4 POP POP POP POP JUMP JUMPDEST PUSH32 0x48656C6C6F20576562332E300000000000000000000000000000000000000000 PUSH1 0x0 DUP3 ADD MSTORE POP JUMP JUMPDEST PUSH1 0x0 PUSH2 0x314 PUSH1 0xC DUP4 PUSH2 0x1D3 JUMP JUMPDEST SWAP2 POP PUSH2 0x31F DUP3 PUSH2 0x2DE JUMP JUMPDEST PUSH1 0x20 DUP3 ADD SWAP1 POP SWAP2 SWAP1 POP JUMP JUMPDEST PUSH1 0x0 PUSH1 0x20 DUP3 ADD SWAP1 POP DUP2 DUP2 SUB PUSH1 0x0 DUP4 ADD MSTORE PUSH2 0x343 DUP2 PUSH2 0x307 JUMP JUMPDEST SWAP1 POP SWAP2 SWAP1 POP JUMP JUMPDEST PUSH32 0x4974277320616C6C2061626F757420446563656E7472616C697A6174696F6E00 PUSH1 0x0 DUP3 ADD MSTORE POP JUMP JUMPDEST PUSH1 0x0 PUSH2 0x380 PUSH1 0x1F DUP4 PUSH2 0x1D3 JUMP JUMPDEST SWAP2 POP PUSH2 0x38B DUP3 PUSH2 0x34A JUMP JUMPDEST PUSH1 0x20 DUP3 ADD SWAP1 POP SWAP2 SWAP1 POP JUMP JUMPDEST PUSH1 0x0 PUSH1 0x20 DUP3 ADD SWAP1 POP DUP2 DUP2 SUB PUSH1 0x0 DUP4 ADD MSTORE PUSH2 0x3AF DUP2 PUSH2 0x373 JUMP JUMPDEST SWAP1 POP SWAP2 SWAP1 POP JUMP INVALID LOG2 PUSH5 0x6970667358 0x22 SLT KECCAK256 0xF7 0x2A MSTORE 0xA7 INVALID CALLDATALOAD 0xAC LOG4 PUSH15 0xB99DAA131B318CE6A76F6B800C978F 0x2C PC SSTORE 0xBF SWAP10 0xD2 PUSH17 0x8F64736F6C634300081200330000000000 "
		},
		"gasEstimates": {
			"creation": {
				"codeDepositCost": "200800",
				"executionCost": "245",
				"totalCost": "201045"
			},
			"external": {
				"emitMyInfo()": "infinite",
				"test()": "infinite"
			}
		},
		"methodIdentifiers": {
			"emitMyInfo()": "0a075957",
			"test()": "f8a8fd6d"
		}
	},
	"abi": [
		{
			"anonymous": false,
			"inputs": [],
			"name": "AnotherLog",
			"type": "event"
		},
		{
			"anonymous": false,
			"inputs": [
				{
					"indexed": true,
					"internalType": "address",
					"name": "sender",
					"type": "address"
				},
				{
					"indexed": false,
					"internalType": "string",
					"name": "msg",
					"type": "string"
				}
			],
			"name": "Log",
			"type": "event"
		},
		{
			"anonymous": false,
			"inputs": [
				{
					"indexed": false,
					"internalType": "string",
					"name": "name",
					"type": "string"
				},
				{
					"indexed": false,
					"internalType": "address",
					"name": "contractAddress",
					"type": "address"
				},
				{
					"indexed": false,
					"internalType": "string",
					"name": "department",
					"type": "string"
				}
			],
			"name": "MyInfo",
			"type": "event"
		},
		{
			"inputs": [],
			"name": "emitMyInfo",
			"outputs": [],
			"stateMutability": "nonpayable",
			"type": "function"
		},
		{
			"inputs": [],
			"name": "test",
			"outputs": [],
			"stateMutability": "nonpayable",
			"type": "function"
		}
	]
}