{
	"data": {
		"bytecode": {
			"linkReferences": {},
			"object": "608060405234801561001057600080fd5b506104ae806100206000396000f3fe608060405234801561001057600080fd5b506004361061004c5760003560e01c80634e70b1dc146100515780635f72f4501461006f578063d423740b1461008b578063f08c09ac146100a7575b600080fd5b6100596100d7565b60405161006691906101ed565b60405180910390f35b61008960048036038101906100849190610239565b6100dd565b005b6100a560048036038101906100a09190610239565b610162565b005b6100c160048036038101906100bc9190610239565b610165565b6040516100ce9190610281565b60405180910390f35b60005481565b6100e681610165565b15610127577f0b5f3d3a9b59fc95c9c652487826ba08506990235686bebaae78e0fd3d934e7c8160405161011a91906102f9565b60405180910390a161015f565b7f0b5f3d3a9b59fc95c9c652487826ba08506990235686bebaae78e0fd3d934e7c816040516101569190610373565b60405180910390a15b50565b50565b6000808214806101755750600182145b1561018357600090506101cf565b6000600290505b60028361019791906103ff565b81116101b05780806101a890610430565b91505061018a565b5060008214806101c05750600282145b156101ce57600190506101cf565b5b919050565b6000819050919050565b6101e7816101d4565b82525050565b600060208201905061020260008301846101de565b92915050565b600080fd5b610216816101d4565b811461022157600080fd5b50565b6000813590506102338161020d565b92915050565b60006020828403121561024f5761024e610208565b5b600061025d84828501610224565b91505092915050565b60008115159050919050565b61027b81610266565b82525050565b60006020820190506102966000830184610272565b92915050565b600082825260208201905092915050565b7f546865204e756d626572206973205072696d6500000000000000000000000000600082015250565b60006102e360138361029c565b91506102ee826102ad565b602082019050919050565b60006040820190508181036000830152610312816102d6565b905061032160208301846101de565b92915050565b7f546865204e756d626572206973206e6f74205072696d65000000000000000000600082015250565b600061035d60178361029c565b915061036882610327565b602082019050919050565b6000604082019050818103600083015261038c81610350565b905061039b60208301846101de565b92915050565b7f4e487b7100000000000000000000000000000000000000000000000000000000600052601260045260246000fd5b7f4e487b7100000000000000000000000000000000000000000000000000000000600052601160045260246000fd5b600061040a826101d4565b9150610415836101d4565b925082610425576104246103a1565b5b828204905092915050565b600061043b826101d4565b91507fffffffffffffffffffffffffffffffffffffffffffffffffffffffffffffffff820361046d5761046c6103d0565b5b60018201905091905056fea26469706673582212207f30afa78f96b8d45fa36bab0a48700957c858892d658eac7d505b87bc3ed49564736f6c63430008120033",
			"opcodes": "PUSH1 0x80 PUSH1 0x40 MSTORE CALLVALUE DUP1 ISZERO PUSH2 0x10 JUMPI PUSH1 0x0 DUP1 REVERT JUMPDEST POP PUSH2 0x4AE DUP1 PUSH2 0x20 PUSH1 0x0 CODECOPY PUSH1 0x0 RETURN INVALID PUSH1 0x80 PUSH1 0x40 MSTORE CALLVALUE DUP1 ISZERO PUSH2 0x10 JUMPI PUSH1 0x0 DUP1 REVERT JUMPDEST POP PUSH1 0x4 CALLDATASIZE LT PUSH2 0x4C JUMPI PUSH1 0x0 CALLDATALOAD PUSH1 0xE0 SHR DUP1 PUSH4 0x4E70B1DC EQ PUSH2 0x51 JUMPI DUP1 PUSH4 0x5F72F450 EQ PUSH2 0x6F JUMPI DUP1 PUSH4 0xD423740B EQ PUSH2 0x8B JUMPI DUP1 PUSH4 0xF08C09AC EQ PUSH2 0xA7 JUMPI JUMPDEST PUSH1 0x0 DUP1 REVERT JUMPDEST PUSH2 0x59 PUSH2 0xD7 JUMP JUMPDEST PUSH1 0x40 MLOAD PUSH2 0x66 SWAP2 SWAP1 PUSH2 0x1ED JUMP JUMPDEST PUSH1 0x40 MLOAD DUP1 SWAP2 SUB SWAP1 RETURN JUMPDEST PUSH2 0x89 PUSH1 0x4 DUP1 CALLDATASIZE SUB DUP2 ADD SWAP1 PUSH2 0x84 SWAP2 SWAP1 PUSH2 0x239 JUMP JUMPDEST PUSH2 0xDD JUMP JUMPDEST STOP JUMPDEST PUSH2 0xA5 PUSH1 0x4 DUP1 CALLDATASIZE SUB DUP2 ADD SWAP1 PUSH2 0xA0 SWAP2 SWAP1 PUSH2 0x239 JUMP JUMPDEST PUSH2 0x162 JUMP JUMPDEST STOP JUMPDEST PUSH2 0xC1 PUSH1 0x4 DUP1 CALLDATASIZE SUB DUP2 ADD SWAP1 PUSH2 0xBC SWAP2 SWAP1 PUSH2 0x239 JUMP JUMPDEST PUSH2 0x165 JUMP JUMPDEST PUSH1 0x40 MLOAD PUSH2 0xCE SWAP2 SWAP1 PUSH2 0x281 JUMP JUMPDEST PUSH1 0x40 MLOAD DUP1 SWAP2 SUB SWAP1 RETURN JUMPDEST PUSH1 0x0 SLOAD DUP2 JUMP JUMPDEST PUSH2 0xE6 DUP2 PUSH2 0x165 JUMP JUMPDEST ISZERO PUSH2 0x127 JUMPI PUSH32 0xB5F3D3A9B59FC95C9C652487826BA08506990235686BEBAAE78E0FD3D934E7C DUP2 PUSH1 0x40 MLOAD PUSH2 0x11A SWAP2 SWAP1 PUSH2 0x2F9 JUMP JUMPDEST PUSH1 0x40 MLOAD DUP1 SWAP2 SUB SWAP1 LOG1 PUSH2 0x15F JUMP JUMPDEST PUSH32 0xB5F3D3A9B59FC95C9C652487826BA08506990235686BEBAAE78E0FD3D934E7C DUP2 PUSH1 0x40 MLOAD PUSH2 0x156 SWAP2 SWAP1 PUSH2 0x373 JUMP JUMPDEST PUSH1 0x40 MLOAD DUP1 SWAP2 SUB SWAP1 LOG1 JUMPDEST POP JUMP JUMPDEST POP JUMP JUMPDEST PUSH1 0x0 DUP1 DUP3 EQ DUP1 PUSH2 0x175 JUMPI POP PUSH1 0x1 DUP3 EQ JUMPDEST ISZERO PUSH2 0x183 JUMPI PUSH1 0x0 SWAP1 POP PUSH2 0x1CF JUMP JUMPDEST PUSH1 0x0 PUSH1 0x2 SWAP1 POP JUMPDEST PUSH1 0x2 DUP4 PUSH2 0x197 SWAP2 SWAP1 PUSH2 0x3FF JUMP JUMPDEST DUP2 GT PUSH2 0x1B0 JUMPI DUP1 DUP1 PUSH2 0x1A8 SWAP1 PUSH2 0x430 JUMP JUMPDEST SWAP2 POP POP PUSH2 0x18A JUMP JUMPDEST POP PUSH1 0x0 DUP3 EQ DUP1 PUSH2 0x1C0 JUMPI POP PUSH1 0x2 DUP3 EQ JUMPDEST ISZERO PUSH2 0x1CE JUMPI PUSH1 0x1 SWAP1 POP PUSH2 0x1CF JUMP JUMPDEST JUMPDEST SWAP2 SWAP1 POP JUMP JUMPDEST PUSH1 0x0 DUP2 SWAP1 POP SWAP2 SWAP1 POP JUMP JUMPDEST PUSH2 0x1E7 DUP2 PUSH2 0x1D4 JUMP JUMPDEST DUP3 MSTORE POP POP JUMP JUMPDEST PUSH1 0x0 PUSH1 0x20 DUP3 ADD SWAP1 POP PUSH2 0x202 PUSH1 0x0 DUP4 ADD DUP5 PUSH2 0x1DE JUMP JUMPDEST SWAP3 SWAP2 POP POP JUMP JUMPDEST PUSH1 0x0 DUP1 REVERT JUMPDEST PUSH2 0x216 DUP2 PUSH2 0x1D4 JUMP JUMPDEST DUP2 EQ PUSH2 0x221 JUMPI PUSH1 0x0 DUP1 REVERT JUMPDEST POP JUMP JUMPDEST PUSH1 0x0 DUP2 CALLDATALOAD SWAP1 POP PUSH2 0x233 DUP2 PUSH2 0x20D JUMP JUMPDEST SWAP3 SWAP2 POP POP JUMP JUMPDEST PUSH1 0x0 PUSH1 0x20 DUP3 DUP5 SUB SLT ISZERO PUSH2 0x24F JUMPI PUSH2 0x24E PUSH2 0x208 JUMP JUMPDEST JUMPDEST PUSH1 0x0 PUSH2 0x25D DUP5 DUP3 DUP6 ADD PUSH2 0x224 JUMP JUMPDEST SWAP2 POP POP SWAP3 SWAP2 POP POP JUMP JUMPDEST PUSH1 0x0 DUP2 ISZERO ISZERO SWAP1 POP SWAP2 SWAP1 POP JUMP JUMPDEST PUSH2 0x27B DUP2 PUSH2 0x266 JUMP JUMPDEST DUP3 MSTORE POP POP JUMP JUMPDEST PUSH1 0x0 PUSH1 0x20 DUP3 ADD SWAP1 POP PUSH2 0x296 PUSH1 0x0 DUP4 ADD DUP5 PUSH2 0x272 JUMP JUMPDEST SWAP3 SWAP2 POP POP JUMP JUMPDEST PUSH1 0x0 DUP3 DUP3 MSTORE PUSH1 0x20 DUP3 ADD SWAP1 POP SWAP3 SWAP2 POP POP JUMP JUMPDEST PUSH32 0x546865204E756D626572206973205072696D6500000000000000000000000000 PUSH1 0x0 DUP3 ADD MSTORE POP JUMP JUMPDEST PUSH1 0x0 PUSH2 0x2E3 PUSH1 0x13 DUP4 PUSH2 0x29C JUMP JUMPDEST SWAP2 POP PUSH2 0x2EE DUP3 PUSH2 0x2AD JUMP JUMPDEST PUSH1 0x20 DUP3 ADD SWAP1 POP SWAP2 SWAP1 POP JUMP JUMPDEST PUSH1 0x0 PUSH1 0x40 DUP3 ADD SWAP1 POP DUP2 DUP2 SUB PUSH1 0x0 DUP4 ADD MSTORE PUSH2 0x312 DUP2 PUSH2 0x2D6 JUMP JUMPDEST SWAP1 POP PUSH2 0x321 PUSH1 0x20 DUP4 ADD DUP5 PUSH2 0x1DE JUMP JUMPDEST SWAP3 SWAP2 POP POP JUMP JUMPDEST PUSH32 0x546865204E756D626572206973206E6F74205072696D65000000000000000000 PUSH1 0x0 DUP3 ADD MSTORE POP JUMP JUMPDEST PUSH1 0x0 PUSH2 0x35D PUSH1 0x17 DUP4 PUSH2 0x29C JUMP JUMPDEST SWAP2 POP PUSH2 0x368 DUP3 PUSH2 0x327 JUMP JUMPDEST PUSH1 0x20 DUP3 ADD SWAP1 POP SWAP2 SWAP1 POP JUMP JUMPDEST PUSH1 0x0 PUSH1 0x40 DUP3 ADD SWAP1 POP DUP2 DUP2 SUB PUSH1 0x0 DUP4 ADD MSTORE PUSH2 0x38C DUP2 PUSH2 0x350 JUMP JUMPDEST SWAP1 POP PUSH2 0x39B PUSH1 0x20 DUP4 ADD DUP5 PUSH2 0x1DE JUMP JUMPDEST SWAP3 SWAP2 POP POP JUMP JUMPDEST PUSH32 0x4E487B7100000000000000000000000000000000000000000000000000000000 PUSH1 0x0 MSTORE PUSH1 0x12 PUSH1 0x4 MSTORE PUSH1 0x24 PUSH1 0x0 REVERT JUMPDEST PUSH32 0x4E487B7100000000000000000000000000000000000000000000000000000000 PUSH1 0x0 MSTORE PUSH1 0x11 PUSH1 0x4 MSTORE PUSH1 0x24 PUSH1 0x0 REVERT JUMPDEST PUSH1 0x0 PUSH2 0x40A DUP3 PUSH2 0x1D4 JUMP JUMPDEST SWAP2 POP PUSH2 0x415 DUP4 PUSH2 0x1D4 JUMP JUMPDEST SWAP3 POP DUP3 PUSH2 0x425 JUMPI PUSH2 0x424 PUSH2 0x3A1 JUMP JUMPDEST JUMPDEST DUP3 DUP3 DIV SWAP1 POP SWAP3 SWAP2 POP POP JUMP JUMPDEST PUSH1 0x0 PUSH2 0x43B DUP3 PUSH2 0x1D4 JUMP JUMPDEST SWAP2 POP PUSH32 0xFFFFFFFFFFFFFFFFFFFFFFFFFFFFFFFFFFFFFFFFFFFFFFFFFFFFFFFFFFFFFFFF DUP3 SUB PUSH2 0x46D JUMPI PUSH2 0x46C PUSH2 0x3D0 JUMP JUMPDEST JUMPDEST PUSH1 0x1 DUP3 ADD SWAP1 POP SWAP2 SWAP1 POP JUMP INVALID LOG2 PUSH5 0x6970667358 0x22 SLT KECCAK256 PUSH32 0x30AFA78F96B8D45FA36BAB0A48700957C858892D658EAC7D505B87BC3ED49564 PUSH20 0x6F6C634300081200330000000000000000000000 "
		},
		"gasEstimates": {
			"creation": {
				"codeDepositCost": "239600",
				"executionCost": "281",
				"totalCost": "239881"
			},
			"external": {
				"PrimeNo(uint256)": "infinite",
				"check(uint256)": "infinite",
				"num()": "2407",
				"setter(uint256)": "428"
			}
		},
		"methodIdentifiers": {
			"PrimeNo(uint256)": "f08c09ac",
			"check(uint256)": "5f72f450",
			"num()": "4e70b1dc",
			"setter(uint256)": "d423740b"
		}
	},
	"abi": [
		{
			"anonymous": false,
			"inputs": [
				{
					"indexed": false,
					"internalType": "string",
					"name": "",
					"type": "string"
				},
				{
					"indexed": false,
					"internalType": "uint256",
					"name": "",
					"type": "uint256"
				}
			],
			"name": "PrimeChecker",
			"type": "event"
		},
		{
			"inputs": [
				{
					"internalType": "uint256",
					"name": "num",
					"type": "uint256"
				}
			],
			"name": "PrimeNo",
			"outputs": [
				{
					"internalType": "bool",
					"name": "",
					"type": "bool"
				}
			],
			"stateMutability": "pure",
			"type": "function"
		},
		{
			"inputs": [
				{
					"internalType": "uint256",
					"name": "number",
					"type": "uint256"
				}
			],
			"name": "check",
			"outputs": [],
			"stateMutability": "nonpayable",
			"type": "function"
		},
		{
			"inputs": [],
			"name": "num",
			"outputs": [
				{
					"internalType": "uint256",
					"name": "",
					"type": "uint256"
				}
			],
			"stateMutability": "view",
			"type": "function"
		},
		{
			"inputs": [
				{
					"internalType": "uint256",
					"name": "_inputNum",
					"type": "uint256"
				}
			],
			"name": "setter",
			"outputs": [],
			"stateMutability": "nonpayable",
			"type": "function"
		}
	]
}