{
	"lab10/EventEx1.sol": {
		"PersonContract": {
			"abi": [
				{
					"anonymous": false,
					"inputs": [
						{
							"components": [
								{
									"internalType": "string",
									"name": "name",
									"type": "string"
								},
								{
									"internalType": "string",
									"name": "city",
									"type": "string"
								},
								{
									"internalType": "uint256",
									"name": "Cnic",
									"type": "uint256"
								}
							],
							"indexed": false,
							"internalType": "struct PersonContract.PersonInfo",
							"name": "oldValue",
							"type": "tuple"
						},
						{
							"components": [
								{
									"internalType": "string",
									"name": "name",
									"type": "string"
								},
								{
									"internalType": "string",
									"name": "city",
									"type": "string"
								},
								{
									"internalType": "uint256",
									"name": "Cnic",
									"type": "uint256"
								}
							],
							"indexed": false,
							"internalType": "struct PersonContract.PersonInfo",
							"name": "newValue",
							"type": "tuple"
						},
						{
							"indexed": false,
							"internalType": "uint256",
							"name": "timestamp",
							"type": "uint256"
						},
						{
							"indexed": false,
							"internalType": "uint256",
							"name": "blockNumber",
							"type": "uint256"
						}
					],
					"name": "Update",
					"type": "event"
				},
				{
					"inputs": [],
					"name": "p1",
					"outputs": [
						{
							"internalType": "string",
							"name": "name",
							"type": "string"
						},
						{
							"internalType": "string",
							"name": "city",
							"type": "string"
						},
						{
							"internalType": "uint256",
							"name": "Cnic",
							"type": "uint256"
						}
					],
					"stateMutability": "view",
					"type": "function"
				},
				{
					"inputs": [],
					"name": "setPersonInfo",
					"outputs": [],
					"stateMutability": "nonpayable",
					"type": "function"
				}
			],
			"devdoc": {
				"kind": "dev",
				"methods": {},
				"version": 1
			},
			"evm": {
				"assembly": "    /* \"lab10/EventEx1.sol\":61:482  contract PersonContract {... */\n  mstore(0x40, 0x80)\n  callvalue\n  dup1\n  iszero\n  tag_1\n  jumpi\n  0x00\n  dup1\n  revert\ntag_1:\n  pop\n  dataSize(sub_0)\n  dup1\n  dataOffset(sub_0)\n  0x00\n  codecopy\n  0x00\n  return\nstop\n\nsub_0: assembly {\n        /* \"lab10/EventEx1.sol\":61:482  contract PersonContract {... */\n      mstore(0x40, 0x80)\n      callvalue\n      dup1\n      iszero\n      tag_1\n      jumpi\n      0x00\n      dup1\n      revert\n    tag_1:\n      pop\n      jumpi(tag_2, lt(calldatasize, 0x04))\n      shr(0xe0, calldataload(0x00))\n      dup1\n      0xb6024c60\n      eq\n      tag_3\n      jumpi\n      dup1\n      0xc2a2747b\n      eq\n      tag_4\n      jumpi\n    tag_2:\n      0x00\n      dup1\n      revert\n        /* \"lab10/EventEx1.sol\":334:477  function setPersonInfo() public {... */\n    tag_3:\n      tag_5\n      tag_6\n      jump\t// in\n    tag_5:\n      stop\n        /* \"lab10/EventEx1.sol\":184:204  PersonInfo public p1 */\n    tag_4:\n      tag_7\n      tag_8\n      jump\t// in\n    tag_7:\n      mload(0x40)\n      tag_9\n      swap4\n      swap3\n      swap2\n      swap1\n      tag_10\n      jump\t// in\n    tag_9:\n      mload(0x40)\n      dup1\n      swap2\n      sub\n      swap1\n      return\n        /* \"lab10/EventEx1.sol\":334:477  function setPersonInfo() public {... */\n    tag_6:\n        /* \"lab10/EventEx1.sol\":373:399  PersonInfo memory oldValue */\n      0x00\n        /* \"lab10/EventEx1.sol\":402:404  p1 */\n      dup1\n        /* \"lab10/EventEx1.sol\":373:404  PersonInfo memory oldValue = p1 */\n      mload(0x40)\n      dup1\n      0x60\n      add\n      0x40\n      mstore\n      swap1\n      dup2\n      0x00\n      dup3\n      add\n      dup1\n      sload\n      tag_12\n      swap1\n      tag_13\n      jump\t// in\n    tag_12:\n      dup1\n      0x1f\n      add\n      0x20\n      dup1\n      swap2\n      div\n      mul\n      0x20\n      add\n      mload(0x40)\n      swap1\n      dup2\n      add\n      0x40\n      mstore\n      dup1\n      swap3\n      swap2\n      swap1\n      dup2\n      dup2\n      mstore\n      0x20\n      add\n      dup3\n      dup1\n      sload\n      tag_14\n      swap1\n      tag_13\n      jump\t// in\n    tag_14:\n      dup1\n      iszero\n      tag_15\n      jumpi\n      dup1\n      0x1f\n      lt\n      tag_16\n      jumpi\n      0x0100\n      dup1\n      dup4\n      sload\n      div\n      mul\n      dup4\n      mstore\n      swap2\n      0x20\n      add\n      swap2\n      jump(tag_15)\n    tag_16:\n      dup3\n      add\n      swap2\n      swap1\n      0x00\n      mstore\n      keccak256(0x00, 0x20)\n      swap1\n    tag_17:\n      dup2\n      sload\n      dup2\n      mstore\n      swap1\n      0x01\n      add\n      swap1\n      0x20\n      add\n      dup1\n      dup4\n      gt\n      tag_17\n      jumpi\n      dup3\n      swap1\n      sub\n      0x1f\n      and\n      dup3\n      add\n      swap2\n    tag_15:\n      pop\n      pop\n      pop\n      pop\n      pop\n      dup2\n      mstore\n      0x20\n      add\n      0x01\n      dup3\n      add\n      dup1\n      sload\n      tag_18\n      swap1\n      tag_13\n      jump\t// in\n    tag_18:\n      dup1\n      0x1f\n      add\n      0x20\n      dup1\n      swap2\n      div\n      mul\n      0x20\n      add\n      mload(0x40)\n      swap1\n      dup2\n      add\n      0x40\n      mstore\n      dup1\n      swap3\n      swap2\n      swap1\n      dup2\n      dup2\n      mstore\n      0x20\n      add\n      dup3\n      dup1\n      sload\n      tag_19\n      swap1\n      tag_13\n      jump\t// in\n    tag_19:\n      dup1\n      iszero\n      tag_20\n      jumpi\n      dup1\n      0x1f\n      lt\n      tag_21\n      jumpi\n      0x0100\n      dup1\n      dup4\n      sload\n      div\n      mul\n      dup4\n      mstore\n      swap2\n      0x20\n      add\n      swap2\n      jump(tag_20)\n    tag_21:\n      dup3\n      add\n      swap2\n      swap1\n      0x00\n      mstore\n      keccak256(0x00, 0x20)\n      swap1\n    tag_22:\n      dup2\n      sload\n      dup2\n      mstore\n      swap1\n      0x01\n      add\n      swap1\n      0x20\n      add\n      dup1\n      dup4\n      gt\n      tag_22\n      jumpi\n      dup3\n      swap1\n      sub\n      0x1f\n      and\n      dup3\n      add\n      swap2\n    tag_20:\n      pop\n      pop\n      pop\n      pop\n      pop\n      dup2\n      mstore\n      0x20\n      add\n      0x02\n      dup3\n      add\n      sload\n      dup2\n      mstore\n      pop\n      pop\n      swap1\n      pop\n        /* \"lab10/EventEx1.sol\":418:469  Update(oldValue, p1, block.timestamp, block.number) */\n      0xb22ecf1a60777746a583bc05c703764abd570daa4ed40ac187911a118bb24a4c\n        /* \"lab10/EventEx1.sol\":425:433  oldValue */\n      dup2\n        /* \"lab10/EventEx1.sol\":435:437  p1 */\n      0x00\n        /* \"lab10/EventEx1.sol\":439:454  block.timestamp */\n      timestamp\n        /* \"lab10/EventEx1.sol\":456:468  block.number */\n      number\n        /* \"lab10/EventEx1.sol\":418:469  Update(oldValue, p1, block.timestamp, block.number) */\n      mload(0x40)\n      tag_23\n      swap5\n      swap4\n      swap3\n      swap2\n      swap1\n      tag_24\n      jump\t// in\n    tag_23:\n      mload(0x40)\n      dup1\n      swap2\n      sub\n      swap1\n      log1\n        /* \"lab10/EventEx1.sol\":366:477  {... */\n      pop\n        /* \"lab10/EventEx1.sol\":334:477  function setPersonInfo() public {... */\n      jump\t// out\n        /* \"lab10/EventEx1.sol\":184:204  PersonInfo public p1 */\n    tag_8:\n      0x00\n      dup1\n      0x00\n      add\n      dup1\n      sload\n      tag_25\n      swap1\n      tag_13\n      jump\t// in\n    tag_25:\n      dup1\n      0x1f\n      add\n      0x20\n      dup1\n      swap2\n      div\n      mul\n      0x20\n      add\n      mload(0x40)\n      swap1\n      dup2\n      add\n      0x40\n      mstore\n      dup1\n      swap3\n      swap2\n      swap1\n      dup2\n      dup2\n      mstore\n      0x20\n      add\n      dup3\n      dup1\n      sload\n      tag_26\n      swap1\n      tag_13\n      jump\t// in\n    tag_26:\n      dup1\n      iszero\n      tag_27\n      jumpi\n      dup1\n      0x1f\n      lt\n      tag_28\n      jumpi\n      0x0100\n      dup1\n      dup4\n      sload\n      div\n      mul\n      dup4\n      mstore\n      swap2\n      0x20\n      add\n      swap2\n      jump(tag_27)\n    tag_28:\n      dup3\n      add\n      swap2\n      swap1\n      0x00\n      mstore\n      keccak256(0x00, 0x20)\n      swap1\n    tag_29:\n      dup2\n      sload\n      dup2\n      mstore\n      swap1\n      0x01\n      add\n      swap1\n      0x20\n      add\n      dup1\n      dup4\n      gt\n      tag_29\n      jumpi\n      dup3\n      swap1\n      sub\n      0x1f\n      and\n      dup3\n      add\n      swap2\n    tag_27:\n      pop\n      pop\n      pop\n      pop\n      pop\n      swap1\n      dup1\n      0x01\n      add\n      dup1\n      sload\n      tag_30\n      swap1\n      tag_13\n      jump\t// in\n    tag_30:\n      dup1\n      0x1f\n      add\n      0x20\n      dup1\n      swap2\n      div\n      mul\n      0x20\n      add\n      mload(0x40)\n      swap1\n      dup2\n      add\n      0x40\n      mstore\n      dup1\n      swap3\n      swap2\n      swap1\n      dup2\n      dup2\n      mstore\n      0x20\n      add\n      dup3\n      dup1\n      sload\n      tag_31\n      swap1\n      tag_13\n      jump\t// in\n    tag_31:\n      dup1\n      iszero\n      tag_32\n      jumpi\n      dup1\n      0x1f\n      lt\n      tag_33\n      jumpi\n      0x0100\n      dup1\n      dup4\n      sload\n      div\n      mul\n      dup4\n      mstore\n      swap2\n      0x20\n      add\n      swap2\n      jump(tag_32)\n    tag_33:\n      dup3\n      add\n      swap2\n      swap1\n      0x00\n      mstore\n      keccak256(0x00, 0x20)\n      swap1\n    tag_34:\n      dup2\n      sload\n      dup2\n      mstore\n      swap1\n      0x01\n      add\n      swap1\n      0x20\n      add\n      dup1\n      dup4\n      gt\n      tag_34\n      jumpi\n      dup3\n      swap1\n      sub\n      0x1f\n      and\n      dup3\n      add\n      swap2\n    tag_32:\n      pop\n      pop\n      pop\n      pop\n      pop\n      swap1\n      dup1\n      0x02\n      add\n      sload\n      swap1\n      pop\n      dup4\n      jump\t// out\n        /* \"#utility.yul\":7:106   */\n    tag_35:\n        /* \"#utility.yul\":59:65   */\n      0x00\n        /* \"#utility.yul\":93:98   */\n      dup2\n        /* \"#utility.yul\":87:99   */\n      mload\n        /* \"#utility.yul\":77:99   */\n      swap1\n      pop\n        /* \"#utility.yul\":7:106   */\n      swap2\n      swap1\n      pop\n      jump\t// out\n        /* \"#utility.yul\":112:281   */\n    tag_36:\n        /* \"#utility.yul\":196:207   */\n      0x00\n        /* \"#utility.yul\":230:236   */\n      dup3\n        /* \"#utility.yul\":225:228   */\n      dup3\n        /* \"#utility.yul\":218:237   */\n      mstore\n        /* \"#utility.yul\":270:274   */\n      0x20\n        /* \"#utility.yul\":265:268   */\n      dup3\n        /* \"#utility.yul\":261:275   */\n      add\n        /* \"#utility.yul\":246:275   */\n      swap1\n      pop\n        /* \"#utility.yul\":112:281   */\n      swap3\n      swap2\n      pop\n      pop\n      jump\t// out\n        /* \"#utility.yul\":287:533   */\n    tag_37:\n        /* \"#utility.yul\":368:369   */\n      0x00\n        /* \"#utility.yul\":378:491   */\n    tag_57:\n        /* \"#utility.yul\":392:398   */\n      dup4\n        /* \"#utility.yul\":389:390   */\n      dup2\n        /* \"#utility.yul\":386:399   */\n      lt\n        /* \"#utility.yul\":378:491   */\n      iszero\n      tag_59\n      jumpi\n        /* \"#utility.yul\":477:478   */\n      dup1\n        /* \"#utility.yul\":472:475   */\n      dup3\n        /* \"#utility.yul\":468:479   */\n      add\n        /* \"#utility.yul\":462:480   */\n      mload\n        /* \"#utility.yul\":458:459   */\n      dup2\n        /* \"#utility.yul\":453:456   */\n      dup5\n        /* \"#utility.yul\":449:460   */\n      add\n        /* \"#utility.yul\":442:481   */\n      mstore\n        /* \"#utility.yul\":414:416   */\n      0x20\n        /* \"#utility.yul\":411:412   */\n      dup2\n        /* \"#utility.yul\":407:417   */\n      add\n        /* \"#utility.yul\":402:417   */\n      swap1\n      pop\n        /* \"#utility.yul\":378:491   */\n      jump(tag_57)\n    tag_59:\n        /* \"#utility.yul\":525:526   */\n      0x00\n        /* \"#utility.yul\":516:522   */\n      dup5\n        /* \"#utility.yul\":511:514   */\n      dup5\n        /* \"#utility.yul\":507:523   */\n      add\n        /* \"#utility.yul\":500:527   */\n      mstore\n        /* \"#utility.yul\":349:533   */\n      pop\n        /* \"#utility.yul\":287:533   */\n      pop\n      pop\n      pop\n      jump\t// out\n        /* \"#utility.yul\":539:641   */\n    tag_38:\n        /* \"#utility.yul\":580:586   */\n      0x00\n        /* \"#utility.yul\":631:633   */\n      0x1f\n        /* \"#utility.yul\":627:634   */\n      not\n        /* \"#utility.yul\":622:624   */\n      0x1f\n        /* \"#utility.yul\":615:620   */\n      dup4\n        /* \"#utility.yul\":611:625   */\n      add\n        /* \"#utility.yul\":607:635   */\n      and\n        /* \"#utility.yul\":597:635   */\n      swap1\n      pop\n        /* \"#utility.yul\":539:641   */\n      swap2\n      swap1\n      pop\n      jump\t// out\n        /* \"#utility.yul\":647:1024   */\n    tag_39:\n        /* \"#utility.yul\":735:738   */\n      0x00\n        /* \"#utility.yul\":763:802   */\n      tag_62\n        /* \"#utility.yul\":796:801   */\n      dup3\n        /* \"#utility.yul\":763:802   */\n      tag_35\n      jump\t// in\n    tag_62:\n        /* \"#utility.yul\":818:889   */\n      tag_63\n        /* \"#utility.yul\":882:888   */\n      dup2\n        /* \"#utility.yul\":877:880   */\n      dup6\n        /* \"#utility.yul\":818:889   */\n      tag_36\n      jump\t// in\n    tag_63:\n        /* \"#utility.yul\":811:889   */\n      swap4\n      pop\n        /* \"#utility.yul\":898:963   */\n      tag_64\n        /* \"#utility.yul\":956:962   */\n      dup2\n        /* \"#utility.yul\":951:954   */\n      dup6\n        /* \"#utility.yul\":944:948   */\n      0x20\n        /* \"#utility.yul\":937:942   */\n      dup7\n        /* \"#utility.yul\":933:949   */\n      add\n        /* \"#utility.yul\":898:963   */\n      tag_37\n      jump\t// in\n    tag_64:\n        /* \"#utility.yul\":988:1017   */\n      tag_65\n        /* \"#utility.yul\":1010:1016   */\n      dup2\n        /* \"#utility.yul\":988:1017   */\n      tag_38\n      jump\t// in\n    tag_65:\n        /* \"#utility.yul\":983:986   */\n      dup5\n        /* \"#utility.yul\":979:1018   */\n      add\n        /* \"#utility.yul\":972:1018   */\n      swap2\n      pop\n        /* \"#utility.yul\":739:1024   */\n      pop\n        /* \"#utility.yul\":647:1024   */\n      swap3\n      swap2\n      pop\n      pop\n      jump\t// out\n        /* \"#utility.yul\":1030:1107   */\n    tag_40:\n        /* \"#utility.yul\":1067:1074   */\n      0x00\n        /* \"#utility.yul\":1096:1101   */\n      dup2\n        /* \"#utility.yul\":1085:1101   */\n      swap1\n      pop\n        /* \"#utility.yul\":1030:1107   */\n      swap2\n      swap1\n      pop\n      jump\t// out\n        /* \"#utility.yul\":1113:1231   */\n    tag_41:\n        /* \"#utility.yul\":1200:1224   */\n      tag_68\n        /* \"#utility.yul\":1218:1223   */\n      dup2\n        /* \"#utility.yul\":1200:1224   */\n      tag_40\n      jump\t// in\n    tag_68:\n        /* \"#utility.yul\":1195:1198   */\n      dup3\n        /* \"#utility.yul\":1188:1225   */\n      mstore\n        /* \"#utility.yul\":1113:1231   */\n      pop\n      pop\n      jump\t// out\n        /* \"#utility.yul\":1237:1861   */\n    tag_10:\n        /* \"#utility.yul\":1426:1430   */\n      0x00\n        /* \"#utility.yul\":1464:1466   */\n      0x60\n        /* \"#utility.yul\":1453:1462   */\n      dup3\n        /* \"#utility.yul\":1449:1467   */\n      add\n        /* \"#utility.yul\":1441:1467   */\n      swap1\n      pop\n        /* \"#utility.yul\":1513:1522   */\n      dup2\n        /* \"#utility.yul\":1507:1511   */\n      dup2\n        /* \"#utility.yul\":1503:1523   */\n      sub\n        /* \"#utility.yul\":1499:1500   */\n      0x00\n        /* \"#utility.yul\":1488:1497   */\n      dup4\n        /* \"#utility.yul\":1484:1501   */\n      add\n        /* \"#utility.yul\":1477:1524   */\n      mstore\n        /* \"#utility.yul\":1541:1619   */\n      tag_70\n        /* \"#utility.yul\":1614:1618   */\n      dup2\n        /* \"#utility.yul\":1605:1611   */\n      dup7\n        /* \"#utility.yul\":1541:1619   */\n      tag_39\n      jump\t// in\n    tag_70:\n        /* \"#utility.yul\":1533:1619   */\n      swap1\n      pop\n        /* \"#utility.yul\":1666:1675   */\n      dup2\n        /* \"#utility.yul\":1660:1664   */\n      dup2\n        /* \"#utility.yul\":1656:1676   */\n      sub\n        /* \"#utility.yul\":1651:1653   */\n      0x20\n        /* \"#utility.yul\":1640:1649   */\n      dup4\n        /* \"#utility.yul\":1636:1654   */\n      add\n        /* \"#utility.yul\":1629:1677   */\n      mstore\n        /* \"#utility.yul\":1694:1772   */\n      tag_71\n        /* \"#utility.yul\":1767:1771   */\n      dup2\n        /* \"#utility.yul\":1758:1764   */\n      dup6\n        /* \"#utility.yul\":1694:1772   */\n      tag_39\n      jump\t// in\n    tag_71:\n        /* \"#utility.yul\":1686:1772   */\n      swap1\n      pop\n        /* \"#utility.yul\":1782:1854   */\n      tag_72\n        /* \"#utility.yul\":1850:1852   */\n      0x40\n        /* \"#utility.yul\":1839:1848   */\n      dup4\n        /* \"#utility.yul\":1835:1853   */\n      add\n        /* \"#utility.yul\":1826:1832   */\n      dup5\n        /* \"#utility.yul\":1782:1854   */\n      tag_41\n      jump\t// in\n    tag_72:\n        /* \"#utility.yul\":1237:1861   */\n      swap5\n      swap4\n      pop\n      pop\n      pop\n      pop\n      jump\t// out\n        /* \"#utility.yul\":1867:2047   */\n    tag_42:\n        /* \"#utility.yul\":1915:1992   */\n      0x4e487b7100000000000000000000000000000000000000000000000000000000\n        /* \"#utility.yul\":1912:1913   */\n      0x00\n        /* \"#utility.yul\":1905:1993   */\n      mstore\n        /* \"#utility.yul\":2012:2016   */\n      0x22\n        /* \"#utility.yul\":2009:2010   */\n      0x04\n        /* \"#utility.yul\":2002:2017   */\n      mstore\n        /* \"#utility.yul\":2036:2040   */\n      0x24\n        /* \"#utility.yul\":2033:2034   */\n      0x00\n        /* \"#utility.yul\":2026:2041   */\n      revert\n        /* \"#utility.yul\":2053:2373   */\n    tag_13:\n        /* \"#utility.yul\":2097:2103   */\n      0x00\n        /* \"#utility.yul\":2134:2135   */\n      0x02\n        /* \"#utility.yul\":2128:2132   */\n      dup3\n        /* \"#utility.yul\":2124:2136   */\n      div\n        /* \"#utility.yul\":2114:2136   */\n      swap1\n      pop\n        /* \"#utility.yul\":2181:2182   */\n      0x01\n        /* \"#utility.yul\":2175:2179   */\n      dup3\n        /* \"#utility.yul\":2171:2183   */\n      and\n        /* \"#utility.yul\":2202:2220   */\n      dup1\n        /* \"#utility.yul\":2192:2273   */\n      tag_75\n      jumpi\n        /* \"#utility.yul\":2258:2262   */\n      0x7f\n        /* \"#utility.yul\":2250:2256   */\n      dup3\n        /* \"#utility.yul\":2246:2263   */\n      and\n        /* \"#utility.yul\":2236:2263   */\n      swap2\n      pop\n        /* \"#utility.yul\":2192:2273   */\n    tag_75:\n        /* \"#utility.yul\":2320:2322   */\n      0x20\n        /* \"#utility.yul\":2312:2318   */\n      dup3\n        /* \"#utility.yul\":2309:2323   */\n      lt\n        /* \"#utility.yul\":2289:2307   */\n      dup2\n        /* \"#utility.yul\":2286:2324   */\n      sub\n        /* \"#utility.yul\":2283:2367   */\n      tag_76\n      jumpi\n        /* \"#utility.yul\":2339:2357   */\n      tag_77\n      tag_42\n      jump\t// in\n    tag_77:\n        /* \"#utility.yul\":2283:2367   */\n    tag_76:\n        /* \"#utility.yul\":2104:2373   */\n      pop\n        /* \"#utility.yul\":2053:2373   */\n      swap2\n      swap1\n      pop\n      jump\t// out\n        /* \"#utility.yul\":2379:2538   */\n    tag_43:\n        /* \"#utility.yul\":2453:2464   */\n      0x00\n        /* \"#utility.yul\":2487:2493   */\n      dup3\n        /* \"#utility.yul\":2482:2485   */\n      dup3\n        /* \"#utility.yul\":2475:2494   */\n      mstore\n        /* \"#utility.yul\":2527:2531   */\n      0x20\n        /* \"#utility.yul\":2522:2525   */\n      dup3\n        /* \"#utility.yul\":2518:2532   */\n      add\n        /* \"#utility.yul\":2503:2532   */\n      swap1\n      pop\n        /* \"#utility.yul\":2379:2538   */\n      swap3\n      swap2\n      pop\n      pop\n      jump\t// out\n        /* \"#utility.yul\":2544:2901   */\n    tag_44:\n        /* \"#utility.yul\":2622:2625   */\n      0x00\n        /* \"#utility.yul\":2650:2689   */\n      tag_80\n        /* \"#utility.yul\":2683:2688   */\n      dup3\n        /* \"#utility.yul\":2650:2689   */\n      tag_35\n      jump\t// in\n    tag_80:\n        /* \"#utility.yul\":2705:2766   */\n      tag_81\n        /* \"#utility.yul\":2759:2765   */\n      dup2\n        /* \"#utility.yul\":2754:2757   */\n      dup6\n        /* \"#utility.yul\":2705:2766   */\n      tag_43\n      jump\t// in\n    tag_81:\n        /* \"#utility.yul\":2698:2766   */\n      swap4\n      pop\n        /* \"#utility.yul\":2775:2840   */\n      tag_82\n        /* \"#utility.yul\":2833:2839   */\n      dup2\n        /* \"#utility.yul\":2828:2831   */\n      dup6\n        /* \"#utility.yul\":2821:2825   */\n      0x20\n        /* \"#utility.yul\":2814:2819   */\n      dup7\n        /* \"#utility.yul\":2810:2826   */\n      add\n        /* \"#utility.yul\":2775:2840   */\n      tag_37\n      jump\t// in\n    tag_82:\n        /* \"#utility.yul\":2865:2894   */\n      tag_83\n        /* \"#utility.yul\":2887:2893   */\n      dup2\n        /* \"#utility.yul\":2865:2894   */\n      tag_38\n      jump\t// in\n    tag_83:\n        /* \"#utility.yul\":2860:2863   */\n      dup5\n        /* \"#utility.yul\":2856:2895   */\n      add\n        /* \"#utility.yul\":2849:2895   */\n      swap2\n      pop\n        /* \"#utility.yul\":2626:2901   */\n      pop\n        /* \"#utility.yul\":2544:2901   */\n      swap3\n      swap2\n      pop\n      pop\n      jump\t// out\n        /* \"#utility.yul\":2907:3015   */\n    tag_45:\n        /* \"#utility.yul\":2984:3008   */\n      tag_85\n        /* \"#utility.yul\":3002:3007   */\n      dup2\n        /* \"#utility.yul\":2984:3008   */\n      tag_40\n      jump\t// in\n    tag_85:\n        /* \"#utility.yul\":2979:2982   */\n      dup3\n        /* \"#utility.yul\":2972:3009   */\n      mstore\n        /* \"#utility.yul\":2907:3015   */\n      pop\n      pop\n      jump\t// out\n        /* \"#utility.yul\":3097:3948   */\n    tag_46:\n        /* \"#utility.yul\":3216:3219   */\n      0x00\n        /* \"#utility.yul\":3252:3256   */\n      0x60\n        /* \"#utility.yul\":3247:3250   */\n      dup4\n        /* \"#utility.yul\":3243:3257   */\n      add\n        /* \"#utility.yul\":3339:3343   */\n      0x00\n        /* \"#utility.yul\":3332:3337   */\n      dup4\n        /* \"#utility.yul\":3328:3344   */\n      add\n        /* \"#utility.yul\":3322:3345   */\n      mload\n        /* \"#utility.yul\":3392:3395   */\n      dup5\n        /* \"#utility.yul\":3386:3390   */\n      dup3\n        /* \"#utility.yul\":3382:3396   */\n      sub\n        /* \"#utility.yul\":3375:3379   */\n      0x00\n        /* \"#utility.yul\":3370:3373   */\n      dup7\n        /* \"#utility.yul\":3366:3380   */\n      add\n        /* \"#utility.yul\":3359:3397   */\n      mstore\n        /* \"#utility.yul\":3418:3491   */\n      tag_87\n        /* \"#utility.yul\":3486:3490   */\n      dup3\n        /* \"#utility.yul\":3472:3484   */\n      dup3\n        /* \"#utility.yul\":3418:3491   */\n      tag_44\n      jump\t// in\n    tag_87:\n        /* \"#utility.yul\":3410:3491   */\n      swap2\n      pop\n        /* \"#utility.yul\":3267:3502   */\n      pop\n        /* \"#utility.yul\":3584:3588   */\n      0x20\n        /* \"#utility.yul\":3577:3582   */\n      dup4\n        /* \"#utility.yul\":3573:3589   */\n      add\n        /* \"#utility.yul\":3567:3590   */\n      mload\n        /* \"#utility.yul\":3637:3640   */\n      dup5\n        /* \"#utility.yul\":3631:3635   */\n      dup3\n        /* \"#utility.yul\":3627:3641   */\n      sub\n        /* \"#utility.yul\":3620:3624   */\n      0x20\n        /* \"#utility.yul\":3615:3618   */\n      dup7\n        /* \"#utility.yul\":3611:3625   */\n      add\n        /* \"#utility.yul\":3604:3642   */\n      mstore\n        /* \"#utility.yul\":3663:3736   */\n      tag_88\n        /* \"#utility.yul\":3731:3735   */\n      dup3\n        /* \"#utility.yul\":3717:3729   */\n      dup3\n        /* \"#utility.yul\":3663:3736   */\n      tag_44\n      jump\t// in\n    tag_88:\n        /* \"#utility.yul\":3655:3736   */\n      swap2\n      pop\n        /* \"#utility.yul\":3512:3747   */\n      pop\n        /* \"#utility.yul\":3829:3833   */\n      0x40\n        /* \"#utility.yul\":3822:3827   */\n      dup4\n        /* \"#utility.yul\":3818:3834   */\n      add\n        /* \"#utility.yul\":3812:3835   */\n      mload\n        /* \"#utility.yul\":3848:3911   */\n      tag_89\n        /* \"#utility.yul\":3905:3909   */\n      0x40\n        /* \"#utility.yul\":3900:3903   */\n      dup7\n        /* \"#utility.yul\":3896:3910   */\n      add\n        /* \"#utility.yul\":3882:3894   */\n      dup3\n        /* \"#utility.yul\":3848:3911   */\n      tag_45\n      jump\t// in\n    tag_89:\n        /* \"#utility.yul\":3757:3921   */\n      pop\n        /* \"#utility.yul\":3938:3942   */\n      dup1\n        /* \"#utility.yul\":3931:3942   */\n      swap2\n      pop\n        /* \"#utility.yul\":3221:3948   */\n      pop\n        /* \"#utility.yul\":3097:3948   */\n      swap3\n      swap2\n      pop\n      pop\n      jump\t// out\n        /* \"#utility.yul\":3954:4095   */\n    tag_47:\n        /* \"#utility.yul\":4003:4007   */\n      0x00\n        /* \"#utility.yul\":4026:4029   */\n      dup2\n        /* \"#utility.yul\":4018:4029   */\n      swap1\n      pop\n        /* \"#utility.yul\":4049:4052   */\n      dup2\n        /* \"#utility.yul\":4046:4047   */\n      0x00\n        /* \"#utility.yul\":4039:4053   */\n      mstore\n        /* \"#utility.yul\":4083:4087   */\n      0x20\n        /* \"#utility.yul\":4080:4081   */\n      0x00\n        /* \"#utility.yul\":4070:4088   */\n      keccak256\n        /* \"#utility.yul\":4062:4088   */\n      swap1\n      pop\n        /* \"#utility.yul\":3954:4095   */\n      swap2\n      swap1\n      pop\n      jump\t// out\n        /* \"#utility.yul\":4125:4936   */\n    tag_48:\n        /* \"#utility.yul\":4200:4203   */\n      0x00\n        /* \"#utility.yul\":4237:4242   */\n      dup2\n        /* \"#utility.yul\":4231:4243   */\n      sload\n        /* \"#utility.yul\":4266:4302   */\n      tag_92\n        /* \"#utility.yul\":4292:4301   */\n      dup2\n        /* \"#utility.yul\":4266:4302   */\n      tag_13\n      jump\t// in\n    tag_92:\n        /* \"#utility.yul\":4318:4379   */\n      tag_93\n        /* \"#utility.yul\":4372:4378   */\n      dup2\n        /* \"#utility.yul\":4367:4370   */\n      dup7\n        /* \"#utility.yul\":4318:4379   */\n      tag_43\n      jump\t// in\n    tag_93:\n        /* \"#utility.yul\":4311:4379   */\n      swap5\n      pop\n        /* \"#utility.yul\":4410:4411   */\n      0x01\n        /* \"#utility.yul\":4399:4408   */\n      dup3\n        /* \"#utility.yul\":4395:4412   */\n      and\n        /* \"#utility.yul\":4426:4427   */\n      0x00\n        /* \"#utility.yul\":4421:4585   */\n      dup2\n      eq\n      tag_95\n      jumpi\n        /* \"#utility.yul\":4599:4600   */\n      0x01\n        /* \"#utility.yul\":4594:4930   */\n      dup2\n      eq\n      tag_96\n      jumpi\n        /* \"#utility.yul\":4388:4930   */\n      jump(tag_94)\n        /* \"#utility.yul\":4421:4585   */\n    tag_95:\n        /* \"#utility.yul\":4505:4509   */\n      0xff\n        /* \"#utility.yul\":4501:4510   */\n      not\n        /* \"#utility.yul\":4490:4499   */\n      dup4\n        /* \"#utility.yul\":4486:4511   */\n      and\n        /* \"#utility.yul\":4481:4484   */\n      dup7\n        /* \"#utility.yul\":4474:4512   */\n      mstore\n        /* \"#utility.yul\":4565:4571   */\n      dup2\n        /* \"#utility.yul\":4558:4572   */\n      iszero\n        /* \"#utility.yul\":4551:4573   */\n      iszero\n        /* \"#utility.yul\":4545:4549   */\n      0x20\n        /* \"#utility.yul\":4541:4574   */\n      mul\n        /* \"#utility.yul\":4536:4539   */\n      dup7\n        /* \"#utility.yul\":4532:4575   */\n      add\n        /* \"#utility.yul\":4525:4575   */\n      swap4\n      pop\n        /* \"#utility.yul\":4421:4585   */\n      jump(tag_94)\n        /* \"#utility.yul\":4594:4930   */\n    tag_96:\n        /* \"#utility.yul\":4661:4699   */\n      tag_97\n        /* \"#utility.yul\":4693:4698   */\n      dup6\n        /* \"#utility.yul\":4661:4699   */\n      tag_47\n      jump\t// in\n    tag_97:\n        /* \"#utility.yul\":4721:4722   */\n      0x00\n        /* \"#utility.yul\":4735:4889   */\n    tag_98:\n        /* \"#utility.yul\":4749:4755   */\n      dup4\n        /* \"#utility.yul\":4746:4747   */\n      dup2\n        /* \"#utility.yul\":4743:4756   */\n      lt\n        /* \"#utility.yul\":4735:4889   */\n      iszero\n      tag_100\n      jumpi\n        /* \"#utility.yul\":4823:4830   */\n      dup2\n        /* \"#utility.yul\":4817:4831   */\n      sload\n        /* \"#utility.yul\":4813:4814   */\n      dup2\n        /* \"#utility.yul\":4808:4811   */\n      dup10\n        /* \"#utility.yul\":4804:4815   */\n      add\n        /* \"#utility.yul\":4797:4832   */\n      mstore\n        /* \"#utility.yul\":4873:4874   */\n      0x01\n        /* \"#utility.yul\":4864:4871   */\n      dup3\n        /* \"#utility.yul\":4860:4875   */\n      add\n        /* \"#utility.yul\":4849:4875   */\n      swap2\n      pop\n        /* \"#utility.yul\":4771:4775   */\n      0x20\n        /* \"#utility.yul\":4768:4769   */\n      dup2\n        /* \"#utility.yul\":4764:4776   */\n      add\n        /* \"#utility.yul\":4759:4776   */\n      swap1\n      pop\n        /* \"#utility.yul\":4735:4889   */\n      jump(tag_98)\n    tag_100:\n        /* \"#utility.yul\":4918:4919   */\n      dup1\n        /* \"#utility.yul\":4913:4916   */\n      dup9\n        /* \"#utility.yul\":4909:4920   */\n      add\n        /* \"#utility.yul\":4902:4920   */\n      swap6\n      pop\n        /* \"#utility.yul\":4601:4930   */\n      pop\n      pop\n        /* \"#utility.yul\":4388:4930   */\n    tag_94:\n      pop\n        /* \"#utility.yul\":4204:4936   */\n      pop\n      pop\n        /* \"#utility.yul\":4125:4936   */\n      swap3\n      swap2\n      pop\n      pop\n      jump\t// out\n        /* \"#utility.yul\":4942:5044   */\n    tag_49:\n        /* \"#utility.yul\":4984:4992   */\n      0x00\n        /* \"#utility.yul\":5031:5036   */\n      dup2\n        /* \"#utility.yul\":5028:5029   */\n      0x00\n        /* \"#utility.yul\":5024:5037   */\n      shr\n        /* \"#utility.yul\":5003:5037   */\n      swap1\n      pop\n        /* \"#utility.yul\":4942:5044   */\n      swap2\n      swap1\n      pop\n      jump\t// out\n        /* \"#utility.yul\":5050:5140   */\n    tag_50:\n        /* \"#utility.yul\":5100:5107   */\n      0x00\n        /* \"#utility.yul\":5129:5134   */\n      dup2\n        /* \"#utility.yul\":5118:5134   */\n      swap1\n      pop\n        /* \"#utility.yul\":5050:5140   */\n      swap2\n      swap1\n      pop\n      jump\t// out\n        /* \"#utility.yul\":5146:5312   */\n    tag_51:\n        /* \"#utility.yul\":5215:5220   */\n      0x00\n        /* \"#utility.yul\":5240:5306   */\n      tag_104\n        /* \"#utility.yul\":5271:5305   */\n      tag_105\n        /* \"#utility.yul\":5294:5304   */\n      dup4\n        /* \"#utility.yul\":5271:5305   */\n      tag_49\n      jump\t// in\n    tag_105:\n        /* \"#utility.yul\":5240:5306   */\n      tag_50\n      jump\t// in\n    tag_104:\n        /* \"#utility.yul\":5231:5306   */\n      swap1\n      pop\n        /* \"#utility.yul\":5146:5312   */\n      swap2\n      swap1\n      pop\n      jump\t// out\n        /* \"#utility.yul\":5394:6329   */\n    tag_52:\n        /* \"#utility.yul\":5510:5513   */\n      0x00\n        /* \"#utility.yul\":5546:5550   */\n      0x60\n        /* \"#utility.yul\":5541:5544   */\n      dup4\n        /* \"#utility.yul\":5537:5551   */\n      add\n        /* \"#utility.yul\":5577:5578   */\n      0x00\n        /* \"#utility.yul\":5654:5658   */\n      dup1\n        /* \"#utility.yul\":5647:5652   */\n      dup5\n        /* \"#utility.yul\":5643:5659   */\n      add\n        /* \"#utility.yul\":5706:5709   */\n      dup6\n        /* \"#utility.yul\":5700:5704   */\n      dup4\n        /* \"#utility.yul\":5696:5710   */\n      sub\n        /* \"#utility.yul\":5689:5693   */\n      0x00\n        /* \"#utility.yul\":5684:5687   */\n      dup8\n        /* \"#utility.yul\":5680:5694   */\n      add\n        /* \"#utility.yul\":5673:5711   */\n      mstore\n        /* \"#utility.yul\":5732:5802   */\n      tag_107\n        /* \"#utility.yul\":5797:5801   */\n      dup4\n        /* \"#utility.yul\":5783:5795   */\n      dup3\n        /* \"#utility.yul\":5732:5802   */\n      tag_48\n      jump\t// in\n    tag_107:\n        /* \"#utility.yul\":5724:5802   */\n      swap3\n      pop\n        /* \"#utility.yul\":5588:5813   */\n      pop\n        /* \"#utility.yul\":5889:5893   */\n      0x01\n        /* \"#utility.yul\":5882:5887   */\n      dup5\n        /* \"#utility.yul\":5878:5894   */\n      add\n        /* \"#utility.yul\":5941:5944   */\n      dup6\n        /* \"#utility.yul\":5935:5939   */\n      dup4\n        /* \"#utility.yul\":5931:5945   */\n      sub\n        /* \"#utility.yul\":5924:5928   */\n      0x20\n        /* \"#utility.yul\":5919:5922   */\n      dup8\n        /* \"#utility.yul\":5915:5929   */\n      add\n        /* \"#utility.yul\":5908:5946   */\n      mstore\n        /* \"#utility.yul\":5967:6037   */\n      tag_108\n        /* \"#utility.yul\":6032:6036   */\n      dup4\n        /* \"#utility.yul\":6018:6030   */\n      dup3\n        /* \"#utility.yul\":5967:6037   */\n      tag_48\n      jump\t// in\n    tag_108:\n        /* \"#utility.yul\":5959:6037   */\n      swap3\n      pop\n        /* \"#utility.yul\":5823:6048   */\n      pop\n        /* \"#utility.yul\":6122:6126   */\n      0x02\n        /* \"#utility.yul\":6115:6120   */\n      dup5\n        /* \"#utility.yul\":6111:6127   */\n      add\n        /* \"#utility.yul\":6105:6128   */\n      sload\n        /* \"#utility.yul\":6092:6128   */\n      swap1\n      pop\n        /* \"#utility.yul\":6161:6216   */\n      tag_109\n        /* \"#utility.yul\":6206:6215   */\n      dup2\n        /* \"#utility.yul\":6161:6216   */\n      tag_51\n      jump\t// in\n    tag_109:\n        /* \"#utility.yul\":6229:6292   */\n      tag_110\n        /* \"#utility.yul\":6286:6290   */\n      0x40\n        /* \"#utility.yul\":6281:6284   */\n      dup8\n        /* \"#utility.yul\":6277:6291   */\n      add\n        /* \"#utility.yul\":6263:6275   */\n      dup3\n        /* \"#utility.yul\":6229:6292   */\n      tag_45\n      jump\t// in\n    tag_110:\n        /* \"#utility.yul\":6058:6302   */\n      pop\n        /* \"#utility.yul\":6319:6323   */\n      dup2\n        /* \"#utility.yul\":6312:6323   */\n      swap3\n      pop\n        /* \"#utility.yul\":5515:6329   */\n      pop\n      pop\n        /* \"#utility.yul\":5394:6329   */\n      swap3\n      swap2\n      pop\n      pop\n      jump\t// out\n        /* \"#utility.yul\":6335:7184   */\n    tag_24:\n        /* \"#utility.yul\":6609:6613   */\n      0x00\n        /* \"#utility.yul\":6647:6650   */\n      0x80\n        /* \"#utility.yul\":6636:6645   */\n      dup3\n        /* \"#utility.yul\":6632:6651   */\n      add\n        /* \"#utility.yul\":6624:6651   */\n      swap1\n      pop\n        /* \"#utility.yul\":6697:6706   */\n      dup2\n        /* \"#utility.yul\":6691:6695   */\n      dup2\n        /* \"#utility.yul\":6687:6707   */\n      sub\n        /* \"#utility.yul\":6683:6684   */\n      0x00\n        /* \"#utility.yul\":6672:6681   */\n      dup4\n        /* \"#utility.yul\":6668:6685   */\n      add\n        /* \"#utility.yul\":6661:6708   */\n      mstore\n        /* \"#utility.yul\":6725:6833   */\n      tag_112\n        /* \"#utility.yul\":6828:6832   */\n      dup2\n        /* \"#utility.yul\":6819:6825   */\n      dup8\n        /* \"#utility.yul\":6725:6833   */\n      tag_46\n      jump\t// in\n    tag_112:\n        /* \"#utility.yul\":6717:6833   */\n      swap1\n      pop\n        /* \"#utility.yul\":6880:6889   */\n      dup2\n        /* \"#utility.yul\":6874:6878   */\n      dup2\n        /* \"#utility.yul\":6870:6890   */\n      sub\n        /* \"#utility.yul\":6865:6867   */\n      0x20\n        /* \"#utility.yul\":6854:6863   */\n      dup4\n        /* \"#utility.yul\":6850:6868   */\n      add\n        /* \"#utility.yul\":6843:6891   */\n      mstore\n        /* \"#utility.yul\":6908:7013   */\n      tag_113\n        /* \"#utility.yul\":7008:7012   */\n      dup2\n        /* \"#utility.yul\":6999:7005   */\n      dup7\n        /* \"#utility.yul\":6908:7013   */\n      tag_52\n      jump\t// in\n    tag_113:\n        /* \"#utility.yul\":6900:7013   */\n      swap1\n      pop\n        /* \"#utility.yul\":7023:7095   */\n      tag_114\n        /* \"#utility.yul\":7091:7093   */\n      0x40\n        /* \"#utility.yul\":7080:7089   */\n      dup4\n        /* \"#utility.yul\":7076:7094   */\n      add\n        /* \"#utility.yul\":7067:7073   */\n      dup6\n        /* \"#utility.yul\":7023:7095   */\n      tag_41\n      jump\t// in\n    tag_114:\n        /* \"#utility.yul\":7105:7177   */\n      tag_115\n        /* \"#utility.yul\":7173:7175   */\n      0x60\n        /* \"#utility.yul\":7162:7171   */\n      dup4\n        /* \"#utility.yul\":7158:7176   */\n      add\n        /* \"#utility.yul\":7149:7155   */\n      dup5\n        /* \"#utility.yul\":7105:7177   */\n      tag_41\n      jump\t// in\n    tag_115:\n        /* \"#utility.yul\":6335:7184   */\n      swap6\n      swap5\n      pop\n      pop\n      pop\n      pop\n      pop\n      jump\t// out\n\n    auxdata: 0xa26469706673582212201d7dcd50849a41f97f5a0281b4366d2f90591266db1d4267994a66a394b28c3b64736f6c63430008120033\n}\n",
				"bytecode": {
					"linkReferences": {},
					"object": "608060405234801561001057600080fd5b506106bf806100206000396000f3fe608060405234801561001057600080fd5b50600436106100365760003560e01c8063b6024c601461003b578063c2a2747b14610045575b600080fd5b610043610065565b005b61004d6101e4565b60405161005c939291906103b5565b60405180910390f35b60008060405180606001604052908160008201805461008390610429565b80601f01602080910402602001604051908101604052809291908181526020018280546100af90610429565b80156100fc5780601f106100d1576101008083540402835291602001916100fc565b820191906000526020600020905b8154815290600101906020018083116100df57829003601f168201915b5050505050815260200160018201805461011590610429565b80601f016020809104026020016040519081016040528092919081815260200182805461014190610429565b801561018e5780601f106101635761010080835404028352916020019161018e565b820191906000526020600020905b81548152906001019060200180831161017157829003601f168201915b5050505050815260200160028201548152505090507fb22ecf1a60777746a583bc05c703764abd570daa4ed40ac187911a118bb24a4c81600042436040516101d99493929190610636565b60405180910390a150565b60008060000180546101f590610429565b80601f016020809104026020016040519081016040528092919081815260200182805461022190610429565b801561026e5780601f106102435761010080835404028352916020019161026e565b820191906000526020600020905b81548152906001019060200180831161025157829003601f168201915b50505050509080600101805461028390610429565b80601f01602080910402602001604051908101604052809291908181526020018280546102af90610429565b80156102fc5780601f106102d1576101008083540402835291602001916102fc565b820191906000526020600020905b8154815290600101906020018083116102df57829003601f168201915b5050505050908060020154905083565b600081519050919050565b600082825260208201905092915050565b60005b8381101561034657808201518184015260208101905061032b565b60008484015250505050565b6000601f19601f8301169050919050565b600061036e8261030c565b6103788185610317565b9350610388818560208601610328565b61039181610352565b840191505092915050565b6000819050919050565b6103af8161039c565b82525050565b600060608201905081810360008301526103cf8186610363565b905081810360208301526103e38185610363565b90506103f260408301846103a6565b949350505050565b7f4e487b7100000000000000000000000000000000000000000000000000000000600052602260045260246000fd5b6000600282049050600182168061044157607f821691505b602082108103610454576104536103fa565b5b50919050565b600082825260208201905092915050565b60006104768261030c565b610480818561045a565b9350610490818560208601610328565b61049981610352565b840191505092915050565b6104ad8161039c565b82525050565b600060608301600083015184820360008601526104d0828261046b565b915050602083015184820360208601526104ea828261046b565b91505060408301516104ff60408601826104a4565b508091505092915050565b60008190508160005260206000209050919050565b6000815461052c81610429565b610536818661045a565b9450600182166000811461055157600181146105675761059a565b60ff19831686528115156020028601935061059a565b6105708561050a565b60005b8381101561059257815481890152600182019150602081019050610573565b808801955050505b50505092915050565b60008160001c9050919050565b6000819050919050565b60006105cd6105c8836105a3565b6105b0565b9050919050565b600060608301600080840185830360008701526105f1838261051f565b92505060018401858303602087015261060a838261051f565b9250506002840154905061061d816105ba565b61062a60408701826104a4565b50819250505092915050565b6000608082019050818103600083015261065081876104b3565b9050818103602083015261066481866105d4565b905061067360408301856103a6565b61068060608301846103a6565b9594505050505056fea26469706673582212201d7dcd50849a41f97f5a0281b4366d2f90591266db1d4267994a66a394b28c3b64736f6c63430008120033",
					"opcodes": "PUSH1 0x80 PUSH1 0x40 MSTORE CALLVALUE DUP1 ISZERO PUSH2 0x10 JUMPI PUSH1 0x0 DUP1 REVERT JUMPDEST POP PUSH2 0x6BF DUP1 PUSH2 0x20 PUSH1 0x0 CODECOPY PUSH1 0x0 RETURN INVALID PUSH1 0x80 PUSH1 0x40 MSTORE CALLVALUE DUP1 ISZERO PUSH2 0x10 JUMPI PUSH1 0x0 DUP1 REVERT JUMPDEST POP PUSH1 0x4 CALLDATASIZE LT PUSH2 0x36 JUMPI PUSH1 0x0 CALLDATALOAD PUSH1 0xE0 SHR DUP1 PUSH4 0xB6024C60 EQ PUSH2 0x3B JUMPI DUP1 PUSH4 0xC2A2747B EQ PUSH2 0x45 JUMPI JUMPDEST PUSH1 0x0 DUP1 REVERT JUMPDEST PUSH2 0x43 PUSH2 0x65 JUMP JUMPDEST STOP JUMPDEST PUSH2 0x4D PUSH2 0x1E4 JUMP JUMPDEST PUSH1 0x40 MLOAD PUSH2 0x5C SWAP4 SWAP3 SWAP2 SWAP1 PUSH2 0x3B5 JUMP JUMPDEST PUSH1 0x40 MLOAD DUP1 SWAP2 SUB SWAP1 RETURN JUMPDEST PUSH1 0x0 DUP1 PUSH1 0x40 MLOAD DUP1 PUSH1 0x60 ADD PUSH1 0x40 MSTORE SWAP1 DUP2 PUSH1 0x0 DUP3 ADD DUP1 SLOAD PUSH2 0x83 SWAP1 PUSH2 0x429 JUMP JUMPDEST DUP1 PUSH1 0x1F ADD PUSH1 0x20 DUP1 SWAP2 DIV MUL PUSH1 0x20 ADD PUSH1 0x40 MLOAD SWAP1 DUP2 ADD PUSH1 0x40 MSTORE DUP1 SWAP3 SWAP2 SWAP1 DUP2 DUP2 MSTORE PUSH1 0x20 ADD DUP3 DUP1 SLOAD PUSH2 0xAF SWAP1 PUSH2 0x429 JUMP JUMPDEST DUP1 ISZERO PUSH2 0xFC JUMPI DUP1 PUSH1 0x1F LT PUSH2 0xD1 JUMPI PUSH2 0x100 DUP1 DUP4 SLOAD DIV MUL DUP4 MSTORE SWAP2 PUSH1 0x20 ADD SWAP2 PUSH2 0xFC JUMP JUMPDEST DUP3 ADD SWAP2 SWAP1 PUSH1 0x0 MSTORE PUSH1 0x20 PUSH1 0x0 KECCAK256 SWAP1 JUMPDEST DUP2 SLOAD DUP2 MSTORE SWAP1 PUSH1 0x1 ADD SWAP1 PUSH1 0x20 ADD DUP1 DUP4 GT PUSH2 0xDF JUMPI DUP3 SWAP1 SUB PUSH1 0x1F AND DUP3 ADD SWAP2 JUMPDEST POP POP POP POP POP DUP2 MSTORE PUSH1 0x20 ADD PUSH1 0x1 DUP3 ADD DUP1 SLOAD PUSH2 0x115 SWAP1 PUSH2 0x429 JUMP JUMPDEST DUP1 PUSH1 0x1F ADD PUSH1 0x20 DUP1 SWAP2 DIV MUL PUSH1 0x20 ADD PUSH1 0x40 MLOAD SWAP1 DUP2 ADD PUSH1 0x40 MSTORE DUP1 SWAP3 SWAP2 SWAP1 DUP2 DUP2 MSTORE PUSH1 0x20 ADD DUP3 DUP1 SLOAD PUSH2 0x141 SWAP1 PUSH2 0x429 JUMP JUMPDEST DUP1 ISZERO PUSH2 0x18E JUMPI DUP1 PUSH1 0x1F LT PUSH2 0x163 JUMPI PUSH2 0x100 DUP1 DUP4 SLOAD DIV MUL DUP4 MSTORE SWAP2 PUSH1 0x20 ADD SWAP2 PUSH2 0x18E JUMP JUMPDEST DUP3 ADD SWAP2 SWAP1 PUSH1 0x0 MSTORE PUSH1 0x20 PUSH1 0x0 KECCAK256 SWAP1 JUMPDEST DUP2 SLOAD DUP2 MSTORE SWAP1 PUSH1 0x1 ADD SWAP1 PUSH1 0x20 ADD DUP1 DUP4 GT PUSH2 0x171 JUMPI DUP3 SWAP1 SUB PUSH1 0x1F AND DUP3 ADD SWAP2 JUMPDEST POP POP POP POP POP DUP2 MSTORE PUSH1 0x20 ADD PUSH1 0x2 DUP3 ADD SLOAD DUP2 MSTORE POP POP SWAP1 POP PUSH32 0xB22ECF1A60777746A583BC05C703764ABD570DAA4ED40AC187911A118BB24A4C DUP2 PUSH1 0x0 TIMESTAMP NUMBER PUSH1 0x40 MLOAD PUSH2 0x1D9 SWAP5 SWAP4 SWAP3 SWAP2 SWAP1 PUSH2 0x636 JUMP JUMPDEST PUSH1 0x40 MLOAD DUP1 SWAP2 SUB SWAP1 LOG1 POP JUMP JUMPDEST PUSH1 0x0 DUP1 PUSH1 0x0 ADD DUP1 SLOAD PUSH2 0x1F5 SWAP1 PUSH2 0x429 JUMP JUMPDEST DUP1 PUSH1 0x1F ADD PUSH1 0x20 DUP1 SWAP2 DIV MUL PUSH1 0x20 ADD PUSH1 0x40 MLOAD SWAP1 DUP2 ADD PUSH1 0x40 MSTORE DUP1 SWAP3 SWAP2 SWAP1 DUP2 DUP2 MSTORE PUSH1 0x20 ADD DUP3 DUP1 SLOAD PUSH2 0x221 SWAP1 PUSH2 0x429 JUMP JUMPDEST DUP1 ISZERO PUSH2 0x26E JUMPI DUP1 PUSH1 0x1F LT PUSH2 0x243 JUMPI PUSH2 0x100 DUP1 DUP4 SLOAD DIV MUL DUP4 MSTORE SWAP2 PUSH1 0x20 ADD SWAP2 PUSH2 0x26E JUMP JUMPDEST DUP3 ADD SWAP2 SWAP1 PUSH1 0x0 MSTORE PUSH1 0x20 PUSH1 0x0 KECCAK256 SWAP1 JUMPDEST DUP2 SLOAD DUP2 MSTORE SWAP1 PUSH1 0x1 ADD SWAP1 PUSH1 0x20 ADD DUP1 DUP4 GT PUSH2 0x251 JUMPI DUP3 SWAP1 SUB PUSH1 0x1F AND DUP3 ADD SWAP2 JUMPDEST POP POP POP POP POP SWAP1 DUP1 PUSH1 0x1 ADD DUP1 SLOAD PUSH2 0x283 SWAP1 PUSH2 0x429 JUMP JUMPDEST DUP1 PUSH1 0x1F ADD PUSH1 0x20 DUP1 SWAP2 DIV MUL PUSH1 0x20 ADD PUSH1 0x40 MLOAD SWAP1 DUP2 ADD PUSH1 0x40 MSTORE DUP1 SWAP3 SWAP2 SWAP1 DUP2 DUP2 MSTORE PUSH1 0x20 ADD DUP3 DUP1 SLOAD PUSH2 0x2AF SWAP1 PUSH2 0x429 JUMP JUMPDEST DUP1 ISZERO PUSH2 0x2FC JUMPI DUP1 PUSH1 0x1F LT PUSH2 0x2D1 JUMPI PUSH2 0x100 DUP1 DUP4 SLOAD DIV MUL DUP4 MSTORE SWAP2 PUSH1 0x20 ADD SWAP2 PUSH2 0x2FC JUMP JUMPDEST DUP3 ADD SWAP2 SWAP1 PUSH1 0x0 MSTORE PUSH1 0x20 PUSH1 0x0 KECCAK256 SWAP1 JUMPDEST DUP2 SLOAD DUP2 MSTORE SWAP1 PUSH1 0x1 ADD SWAP1 PUSH1 0x20 ADD DUP1 DUP4 GT PUSH2 0x2DF JUMPI DUP3 SWAP1 SUB PUSH1 0x1F AND DUP3 ADD SWAP2 JUMPDEST POP POP POP POP POP SWAP1 DUP1 PUSH1 0x2 ADD SLOAD SWAP1 POP DUP4 JUMP JUMPDEST PUSH1 0x0 DUP2 MLOAD SWAP1 POP SWAP2 SWAP1 POP JUMP JUMPDEST PUSH1 0x0 DUP3 DUP3 MSTORE PUSH1 0x20 DUP3 ADD SWAP1 POP SWAP3 SWAP2 POP POP JUMP JUMPDEST PUSH1 0x0 JUMPDEST DUP4 DUP2 LT ISZERO PUSH2 0x346 JUMPI DUP1 DUP3 ADD MLOAD DUP2 DUP5 ADD MSTORE PUSH1 0x20 DUP2 ADD SWAP1 POP PUSH2 0x32B JUMP JUMPDEST PUSH1 0x0 DUP5 DUP5 ADD MSTORE POP POP POP POP JUMP JUMPDEST PUSH1 0x0 PUSH1 0x1F NOT PUSH1 0x1F DUP4 ADD AND SWAP1 POP SWAP2 SWAP1 POP JUMP JUMPDEST PUSH1 0x0 PUSH2 0x36E DUP3 PUSH2 0x30C JUMP JUMPDEST PUSH2 0x378 DUP2 DUP6 PUSH2 0x317 JUMP JUMPDEST SWAP4 POP PUSH2 0x388 DUP2 DUP6 PUSH1 0x20 DUP7 ADD PUSH2 0x328 JUMP JUMPDEST PUSH2 0x391 DUP2 PUSH2 0x352 JUMP JUMPDEST DUP5 ADD SWAP2 POP POP SWAP3 SWAP2 POP POP JUMP JUMPDEST PUSH1 0x0 DUP2 SWAP1 POP SWAP2 SWAP1 POP JUMP JUMPDEST PUSH2 0x3AF DUP2 PUSH2 0x39C JUMP JUMPDEST DUP3 MSTORE POP POP JUMP JUMPDEST PUSH1 0x0 PUSH1 0x60 DUP3 ADD SWAP1 POP DUP2 DUP2 SUB PUSH1 0x0 DUP4 ADD MSTORE PUSH2 0x3CF DUP2 DUP7 PUSH2 0x363 JUMP JUMPDEST SWAP1 POP DUP2 DUP2 SUB PUSH1 0x20 DUP4 ADD MSTORE PUSH2 0x3E3 DUP2 DUP6 PUSH2 0x363 JUMP JUMPDEST SWAP1 POP PUSH2 0x3F2 PUSH1 0x40 DUP4 ADD DUP5 PUSH2 0x3A6 JUMP JUMPDEST SWAP5 SWAP4 POP POP POP POP JUMP JUMPDEST PUSH32 0x4E487B7100000000000000000000000000000000000000000000000000000000 PUSH1 0x0 MSTORE PUSH1 0x22 PUSH1 0x4 MSTORE PUSH1 0x24 PUSH1 0x0 REVERT JUMPDEST PUSH1 0x0 PUSH1 0x2 DUP3 DIV SWAP1 POP PUSH1 0x1 DUP3 AND DUP1 PUSH2 0x441 JUMPI PUSH1 0x7F DUP3 AND SWAP2 POP JUMPDEST PUSH1 0x20 DUP3 LT DUP2 SUB PUSH2 0x454 JUMPI PUSH2 0x453 PUSH2 0x3FA JUMP JUMPDEST JUMPDEST POP SWAP2 SWAP1 POP JUMP JUMPDEST PUSH1 0x0 DUP3 DUP3 MSTORE PUSH1 0x20 DUP3 ADD SWAP1 POP SWAP3 SWAP2 POP POP JUMP JUMPDEST PUSH1 0x0 PUSH2 0x476 DUP3 PUSH2 0x30C JUMP JUMPDEST PUSH2 0x480 DUP2 DUP6 PUSH2 0x45A JUMP JUMPDEST SWAP4 POP PUSH2 0x490 DUP2 DUP6 PUSH1 0x20 DUP7 ADD PUSH2 0x328 JUMP JUMPDEST PUSH2 0x499 DUP2 PUSH2 0x352 JUMP JUMPDEST DUP5 ADD SWAP2 POP POP SWAP3 SWAP2 POP POP JUMP JUMPDEST PUSH2 0x4AD DUP2 PUSH2 0x39C JUMP JUMPDEST DUP3 MSTORE POP POP JUMP JUMPDEST PUSH1 0x0 PUSH1 0x60 DUP4 ADD PUSH1 0x0 DUP4 ADD MLOAD DUP5 DUP3 SUB PUSH1 0x0 DUP7 ADD MSTORE PUSH2 0x4D0 DUP3 DUP3 PUSH2 0x46B JUMP JUMPDEST SWAP2 POP POP PUSH1 0x20 DUP4 ADD MLOAD DUP5 DUP3 SUB PUSH1 0x20 DUP7 ADD MSTORE PUSH2 0x4EA DUP3 DUP3 PUSH2 0x46B JUMP JUMPDEST SWAP2 POP POP PUSH1 0x40 DUP4 ADD MLOAD PUSH2 0x4FF PUSH1 0x40 DUP7 ADD DUP3 PUSH2 0x4A4 JUMP JUMPDEST POP DUP1 SWAP2 POP POP SWAP3 SWAP2 POP POP JUMP JUMPDEST PUSH1 0x0 DUP2 SWAP1 POP DUP2 PUSH1 0x0 MSTORE PUSH1 0x20 PUSH1 0x0 KECCAK256 SWAP1 POP SWAP2 SWAP1 POP JUMP JUMPDEST PUSH1 0x0 DUP2 SLOAD PUSH2 0x52C DUP2 PUSH2 0x429 JUMP JUMPDEST PUSH2 0x536 DUP2 DUP7 PUSH2 0x45A JUMP JUMPDEST SWAP5 POP PUSH1 0x1 DUP3 AND PUSH1 0x0 DUP2 EQ PUSH2 0x551 JUMPI PUSH1 0x1 DUP2 EQ PUSH2 0x567 JUMPI PUSH2 0x59A JUMP JUMPDEST PUSH1 0xFF NOT DUP4 AND DUP7 MSTORE DUP2 ISZERO ISZERO PUSH1 0x20 MUL DUP7 ADD SWAP4 POP PUSH2 0x59A JUMP JUMPDEST PUSH2 0x570 DUP6 PUSH2 0x50A JUMP JUMPDEST PUSH1 0x0 JUMPDEST DUP4 DUP2 LT ISZERO PUSH2 0x592 JUMPI DUP2 SLOAD DUP2 DUP10 ADD MSTORE PUSH1 0x1 DUP3 ADD SWAP2 POP PUSH1 0x20 DUP2 ADD SWAP1 POP PUSH2 0x573 JUMP JUMPDEST DUP1 DUP9 ADD SWAP6 POP POP POP JUMPDEST POP POP POP SWAP3 SWAP2 POP POP JUMP JUMPDEST PUSH1 0x0 DUP2 PUSH1 0x0 SHR SWAP1 POP SWAP2 SWAP1 POP JUMP JUMPDEST PUSH1 0x0 DUP2 SWAP1 POP SWAP2 SWAP1 POP JUMP JUMPDEST PUSH1 0x0 PUSH2 0x5CD PUSH2 0x5C8 DUP4 PUSH2 0x5A3 JUMP JUMPDEST PUSH2 0x5B0 JUMP JUMPDEST SWAP1 POP SWAP2 SWAP1 POP JUMP JUMPDEST PUSH1 0x0 PUSH1 0x60 DUP4 ADD PUSH1 0x0 DUP1 DUP5 ADD DUP6 DUP4 SUB PUSH1 0x0 DUP8 ADD MSTORE PUSH2 0x5F1 DUP4 DUP3 PUSH2 0x51F JUMP JUMPDEST SWAP3 POP POP PUSH1 0x1 DUP5 ADD DUP6 DUP4 SUB PUSH1 0x20 DUP8 ADD MSTORE PUSH2 0x60A DUP4 DUP3 PUSH2 0x51F JUMP JUMPDEST SWAP3 POP POP PUSH1 0x2 DUP5 ADD SLOAD SWAP1 POP PUSH2 0x61D DUP2 PUSH2 0x5BA JUMP JUMPDEST PUSH2 0x62A PUSH1 0x40 DUP8 ADD DUP3 PUSH2 0x4A4 JUMP JUMPDEST POP DUP2 SWAP3 POP POP POP SWAP3 SWAP2 POP POP JUMP JUMPDEST PUSH1 0x0 PUSH1 0x80 DUP3 ADD SWAP1 POP DUP2 DUP2 SUB PUSH1 0x0 DUP4 ADD MSTORE PUSH2 0x650 DUP2 DUP8 PUSH2 0x4B3 JUMP JUMPDEST SWAP1 POP DUP2 DUP2 SUB PUSH1 0x20 DUP4 ADD MSTORE PUSH2 0x664 DUP2 DUP7 PUSH2 0x5D4 JUMP JUMPDEST SWAP1 POP PUSH2 0x673 PUSH1 0x40 DUP4 ADD DUP6 PUSH2 0x3A6 JUMP JUMPDEST PUSH2 0x680 PUSH1 0x60 DUP4 ADD DUP5 PUSH2 0x3A6 JUMP JUMPDEST SWAP6 SWAP5 POP POP POP POP POP JUMP INVALID LOG2 PUSH5 0x6970667358 0x22 SLT KECCAK256 SAR PUSH30 0xCD50849A41F97F5A0281B4366D2F90591266DB1D4267994A66A394B28C3B PUSH5 0x736F6C6343 STOP ADDMOD SLT STOP CALLER "
				},
				"gasEstimates": {
					"creation": {
						"codeDepositCost": "345400",
						"executionCost": "380",
						"totalCost": "345780"
					},
					"external": {
						"p1()": "infinite",
						"setPersonInfo()": "infinite"
					}
				},
				"methodIdentifiers": {
					"p1()": "c2a2747b",
					"setPersonInfo()": "b6024c60"
				}
			},
			"storageLayout": {
				"storage": [
					{
						"astId": 11,
						"contract": "lab10/EventEx1.sol:PersonContract",
						"label": "p1",
						"offset": 0,
						"slot": "0",
						"type": "t_struct(PersonInfo)8_storage"
					}
				],
				"types": {
					"t_string_storage": {
						"encoding": "bytes",
						"label": "string",
						"numberOfBytes": "32"
					},
					"t_struct(PersonInfo)8_storage": {
						"encoding": "inplace",
						"label": "struct PersonContract.PersonInfo",
						"members": [
							{
								"astId": 3,
								"contract": "lab10/EventEx1.sol:PersonContract",
								"label": "name",
								"offset": 0,
								"slot": "0",
								"type": "t_string_storage"
							},
							{
								"astId": 5,
								"contract": "lab10/EventEx1.sol:PersonContract",
								"label": "city",
								"offset": 0,
								"slot": "1",
								"type": "t_string_storage"
							},
							{
								"astId": 7,
								"contract": "lab10/EventEx1.sol:PersonContract",
								"label": "Cnic",
								"offset": 0,
								"slot": "2",
								"type": "t_uint256"
							}
						],
						"numberOfBytes": "96"
					},
					"t_uint256": {
						"encoding": "inplace",
						"label": "uint256",
						"numberOfBytes": "32"
					}
				}
			},
			"userdoc": {
				"kind": "user",
				"methods": {},
				"version": 1
			}
		}
	}
}